:020000040800F2
:1000000018100020AD0100084F340008172C00081C
:100010004D34000841090008ED40000800000000D0
:10002000000000000000000000000000C7370008CA
:10003000010A000800000000C53700082D3800083C
:10004000C7010008C7010008C7010008C701000870
:10005000C7010008C7010008C7010008290A0008F5
:10006000C7010008C7010008C7010008C701000850
:10007000C7010008C7010008C7010008C701000840
:10008000C7010008C7010008C70100080000000000
:100090000000000000000000000000004D0A000801
:1000A000C7010008C7010008C7010008C701000810
:1000B000D5380008C7010008E1380008C70100086A
:1000C000C7010008C7010008C7010008C7010008F0
:1000D000C7010008E1400008C70100080000000057
:1000E000030A0008C7010008C7010008000000005B
:1000F000000000000000000000000000C701000830
:1001000000000000C7010008C7010008C70100087F
:1001100000000000000000000000000000000000DF
:10012000C7010008C701000845090008C701000809
:10013000C7010008000000000000000000000000EF
:10014000000000000000000000000000C7010008DF
:10015000C7010008C701000851090008C7010008CD
:10016000C7010008C70100080000000000000000EF
:10017000000000000000000000000000000000007F
:1001800000000000C701000800000000000000009F
:10019000C7010008DFF810D000F0EAFA0048004775
:1001A000254A0008AFF30080181000200648804759
:1001B00006480047FEE7FEE7FEE7FEE7FEE7FEE74C
:1001C000FEE7FEE7FEE7FEE7C538000895010008F8
:1001D0002DE9F05F0546002092469B46884606467C
:1001E000814640241BE0284641464746224600F00F
:1001F00009F953465A46C01A914110D31146184680
:10020000224600F0F0F82D1A67EB01084F4622460F
:100210000120002100F0E7F817EB00094E41201EF5
:10022000A4F10104DFDC484631462A464346BDE8D6
:10023000F09FD2B201E000F8012B491EFBD27047BB
:100240000022F6E710B513460A4604461946FFF7A2
:10025000F0FF204610BD2DE9F04D81EA030404F0C3
:10026000004B21F0004514464FF0000A23F00041F6
:1002700050EA050220D054EA01021DD0C5F30A5706
:100280000246C5F31303C1F31300C1F30A5640F449
:10029000801543F48013A7EB0608101BD64608F21E
:1002A000FD3873EB050002D308F1010801E0921854
:1002B0005B41B8F1000F03DA00200146BDE8F08D84
:1002C00000204FF48011064684460EE0171B73EBA6
:1002D000050705D3121B63EB050306434CEA010C2B
:1002E00049084FEA300092185B4150EA0107EDD10E
:1002F00052EA030012D082EA040083EA05010843AF
:1003000005D0101BAB4106D20122002306E00022DB
:100310004FF0004302E06FF0010253101AEB0600A9
:100320004CEB085110EB0A0041EB0B01BDE8F04D1E
:1003300000F078B80EB5C10F80EAE0700844CA0733
:10034000002140F233438DE80E000A460B4600F0D0
:1003500078F803B000BD70B5C1F30A5201F0004552
:100360000024C1F3130140F2FF3341F480119A429B
:1003700001DA002070BD40F233439A42A2F23342C8
:1003800003DC524200F03EF800E090402C43F1D0F4
:10039000404270BD00F0004230F000400AD0C10D74
:1003A00001F56071C0F3160042EA0151C20840072E
:1003B0001143704700200146704730B50B46014697
:1003C00000202022012409E021FA02F59D4205D3F4
:1003D00003FA02F5491B04FA02F52844151EA2F19E
:1003E0000102F1DC30BD202A04DB203A00FA02F1E0
:1003F000002070479140C2F1200320FA03F3194313
:1004000090407047202A04DB203A21FA02F00021B4
:10041000704721FA02F3D040C2F120029140084314
:100420001946704710B5141E73F1000408DA401C19
:1004300041F1000192185B411A4301D120F0010003
:1004400010BD2DE9F04D92469B4611B1B1FA81F2F3
:1004500002E0B0FA80F220329046FFF7C4FF044673
:100460000F4640EA0A0041EA0B0153465A46084348
:1004700013D0114653EA010019D0C8F1400250468A
:10048000FFF7C0FF05460E46504659464246FFF765
:10049000AAFF084305D0012004E020463946BDE804
:1004A000F08D0020054346EAE0762C4337430A9856
:1004B0006305E40AA0EB08000022FD0A44EA475461
:1004C0000A3002D500200146E9E70105101969410B
:1004D000DDE9084500196941BDE8F04DA2E72DE9C5
:1004E000FE4F804681EA0300C00F0C46009021F0C9
:1004F000004123F00045B8EB0200A94105D2404677
:10050000214690461C460B46024623F0004010430D
:1005100047D0270DC7F30A00C3F30A510290401ACF
:10052000019040286BDAC3F3130040F4801B00985D
:10053000924620B10023D2EB030A63EB0B0B019828
:100540005946C0F140025046FFF74DFF06460D46A2
:1005500050465946019A00F01DF910EB0800614120
:10056000002487EA115284EAE7731A4340D0009AC4
:1005700062B3019A012A4FEA075215DC001B61EBB6
:1005800002014FF0004202EA0752CDE90042001C8E
:1005900041F5801132462B46FFF753FF03B0BDE80B
:1005A000F08F40462146F9E7001B61EB0201001C79
:1005B00041F5801300185B412018A2F5001747EBA6
:1005C000030140EAD570B6196D4111E06D084FEA9C
:1005D000360645EAC0754FEA0752001B61EB02017F
:1005E000001C41F5801149084FEA300000195141C3
:1005F00032462B4603B0BDE8F04FFFF713BF00981B
:10060000012240000023D0EB020263EBE07300986C
:1006100021464FEAE074B8EB000061EB0401E9E722
:1006200083F000435BE781F0004158E72DE9FE4F7E
:1006300081EA030404F0004421F0004100944FF0EB
:10064000000B23F0004350EA01045ED052EA030499
:100650005BD0C3F30A54C1F30A552C44A4F2F3341B
:100660000194A0FB0254C1F3130141F48011C3F3C0
:10067000130343F4801301FB024400FB034E840A7E
:10068000970A44EA815447EA8357A4FB0768029516
:100690008D0A05FB07854FEA932C04FB0C542705B4
:1006A000029D4FEA065847EA1637B5EB08056EEB90
:1006B000070C870E920E47EA811742EA8312A7FBC6
:1006C0000201B6EB0B0164EB00042B0D43EA0C3383
:1006D0005E1844EB1C50DA465146E7FB0201C5F3B5
:1006E00013044FEA0B3343EA14534FEA0432019CDC
:1006F00043EA0603A4F10C040294009CCDE900B483
:10070000FFF79FFE03B0BDE8F08F00200146F9E738
:10071000C1F30A52C1F3130140F2FF3341F48011D7
:100720009A4202DA00200146704740F233439A426F
:10073000A2F2334202DC5242FFF764BEFFF753BE1F
:1007400030B5041E71F1000404DB4FF00044404258
:1007500064EB0101141E73F1000405DB1C464FF02D
:100760000043524263EB0403994208BF904230BDFC
:10077000064C074D06E0E06840F0010394E80700EE
:1007800098471034AC42F6D3FFF708FDB058000884
:10079000D0580008202A06DBCB17203A41FA02F095
:1007A00043EAE07306E041FA02F3D040C2F12002CE
:1007B000914008431946704770B58D1810F8014BE9
:1007C00014F0030201D110F8012B231106D110F807
:1007D000013B03E010F8016B01F8016B521EF9D1E7
:1007E000ABB110F8012B04F00C048A1A0C2C03D0C6
:1007F000A2EB84129B1C08E010F8014BA2EB042230
:10080000F8E712F8014B01F8014B5B1EF9D5A9423C
:10081000D4D3002070BD0000464910B54A6822F4C8
:1008200040324A604A6843681A434A6001684A682D
:1008300022F480724A6001684A68036942EA03222E
:100840004A6001684A6822F040724A6001684A685A
:1008500083681A434A6001688A6822F400628A60E9
:1008600001688A68C3681A438A60816A6FF070629F
:10087000D14201688A6822F070628A6001688A68E1
:100880000CD0836A1A438A6001688A6822F0405259
:100890008A6001688A68C36A1A4301E022F0405204
:1008A0008A6001688A6822F002028A6001688A68A8
:1008B000037E42EA43028A6090F820100029016812
:1008C0004A680FD042F400624A6001684A6822F424
:1008D00060424A6001684A68174C436A04EB43333C
:1008E0001A4301E022F400624A600168CA6A22F4F5
:1008F0007002CA620168CA6A838B104C04EB03530E
:100900001A43CA6201688A6822F400728A60016828
:100910008A6890F8303042EA43228A6001688A6827
:1009200022F480628A6001688A68406942EA802015
:10093000886010BD0023014000E0FFFF0000F0FFD1
:10094000FEE70000014800F0D5BA0000540B00207B
:10095000014800F0CFBA0000B40B00200168182352
:10096000CAB2103AB2FBF3F2054B6FF30901032A46
:100970009B5CC36500D9091D81650846704700006E
:100980009058000810B5014600208B698A6A4FF024
:10099000C07453B1B3F5005F15D072B1012A0CD009
:1009A000022A0AD0032A09D104E01AB1012A06D08A
:1009B000022A03D1C96AC90100D5012010BDC96A44
:1009C000A142FAD010BD002AF7D0012AF2D0022AA3
:1009D000F3D0032AF3D010BD30B50468256825F4A0
:1009E00080252560046863608368402B036803D01A
:1009F00099600068C26030BD9A600068C16030BD17
:100A0000704710B54FF4805000F0FAFB4FF40050DF
:100A100000F0F6FB4FF4804000F0F2FBBDE8104020
:100A20004FF4004000F0ECBB064910B5012008600F
:100A30004103054800F0E5FCBDE81040022000F04D
:100A4000DFBB00000809002000080240094810B57B
:100A5000826801215AB1416081604FF4005106481B
:100A600000F0CFFCBDE81040802000F0C9BBC160A1
:100A7000F2E70000080900200008024072B6FEE715
:100A800078B50024009490F83C20012A19D0012266
:100A900080F83C200A6807230568092A13D9EE6804
:100AA0000A3A02EB420293409E43EE600B788A685A
:100AB0000A3B03EB43039A400368DD682A43DA608C
:100AC00010E0022078BD2E6902EB420293409E4363
:100AD0002E610B788A6803EB43039A4003681D6913
:100AE0002A431A614A681F23072A13D205686E6BCE
:100AF000521E02EB820293409E436E630B790A887A
:100B00005B1E92B203EB83039A4003685D6B2A433A
:100B10005A6327E005680D2A12D22E6BD21F02EB12
:100B2000820293409E432E630B790A88DB1F92B2A8
:100B300003EB83039A4003681D6B2A431A6311E099
:100B4000EE6A0D3A02EB820293409E43EE620B790D
:100B50000A880D3B92B203EB83039A400368DD6A77
:100B60002A43DA62164B0568144A9D4206D10D6885
:100B7000122D03D1556845F48005556005689D42E6
:100B800018D10B68102B01D0112B13D1536843F4EB
:100B900000035360096810290CD10A490A4A096800
:100BA000B1FBF2F101EB8101490000E0491E009127
:100BB0000029FBD180F83C40002078BD0023014093
:100BC000002001402409002040420F000068C06C52
:100BD000704770B504004FF0000503D0206C00266C
:100BE00010B107E0012070BD204600F01DF86664DA
:100BF00084F83C60206CC00610D4206C20F488502F
:100C000040F0020020642046FFF706FE6664206C78
:100C100020F0020040F00100206400E0012584F88B
:100C20003C60284670BD000010B586B00446142113
:100C30006846FFF705FB1149206888421CD110481F
:100C40000021026842F480720260006800F4807043
:100C500005900B481438026842F0010202600068F7
:100C600000F001000590182000900320CDE901015B
:100C70006946044800F0D0FA06B010BD00200140DB
:100C800044380240000002402DE9F041044600686B
:100C90000D4681684FF0000749050BD58068C005F7
:100CA00008D5206C40F02000206484F83C700120BE
:100CB000BDE8F08100F0B2FB064613E0681C11D0DD
:100CC00025B100F0ABFB801BA8420BD9206800685F
:100CD000800707D4206C40F00400206484F83C7046
:100CE0000320E5E7206800688007E7D521686FF0FA
:100CF00012000860206C40F4007020642068816855
:100D000011F0405F13D1217E89B9C16A11F4700FCF
:100D100002D0806840050AD4206C20F480702064E2
:100D2000206CC00403D4206C40F00100206400203B
:100D3000BEE7000018B50021009190F83C20012A80
:100D400007D0012280F83C2002689368DB0702D0BC
:100D500011E0022018BD936843F001039360244A18
:100D6000244B1268B2FBF3F202EB420200E0521E87
:100D70000092002AFBD102689368DB072ED0036C37
:100D800040F20164A34343F48073036453685B053A
:100D900005D5036C23F4005343F480530364036CC0
:100DA000DB0404D5436C23F00603436400E0416494
:100DB00080F83C1010496FF0220313604968006806
:100DC000C90602D00D49884210D1816811F0405FF8
:100DD0000CD1816841F08041816007E0016C41F0F5
:100DE00010010164416C41F001014164002018BD13
:100DF0002409002040420F00002301400020014050
:100E000090F83C1001290CD0012180F83C100168B9
:100E10008A6822F001028A6001688968C90702D0E5
:100E200007E002207047016C21F4885141F0010174
:100E30000164002180F83C10084670472DE9F0411C
:100E40000446876D00F0EAFA064694F8350000255E
:100E5000022806D08020606584F834500120BDE867
:100E6000F0812068016821F0160101602068416965
:100E700021F080014161206C08B9A06C20B120688C
:100E8000016821F0080101602068016821F001017A
:100E900001600CE000F0C2FA801B052807D9202071
:100EA0006065032084F8350084F83450D7E7206863
:100EB0000068C007EED194F85C103F208840B8600D
:100EC000012084F8350084F834500020C7E790F8FA
:100ED0003510022903D0802141650120704705218A
:100EE00080F835100068016821F0010101600020E0
:100EF000704700002DE9F84304464FF00009CDF893
:100F0000009063484FF41651A56D0068B0FBF1F7EF
:100F10002E6894F85C10082000FA01F131420FD0DD
:100F200021680A6852070BD50A6822F004020A6099
:100F300094F85C108840A860606D40F00100606526
:100F400094F85C104FF0010808FA01F0304208D024
:100F500021684969090604D5A860606D40F0020067
:100F6000606594F85C1004208840304208D0216805
:100F70000968890704D5A860606D40F004006065C9
:100F800094F85C1010208840304218D0216809681D
:100F9000090714D5A86020680168490304D50068D2
:100FA000000308D5A16C07E00168C90503D40168F6
:100FB00021F008010160216C09B12046884794F8AE
:100FC0005C1020208840304231D021680968C90671
:100FD0002DD5A86094F8350005282068016806D052
:100FE000490347D5006800031DD4616C1CE021F063
:100FF000160101602068416921F080014161206C87
:1010000008B9A06C20B12068016821F008010160D6
:1010100094F85C103F208840A86084F8358084F8FC
:101020003490216D1FE0E16B09B120468847606D67
:1010300000282BD0606DC00714D0052084F835003F
:101040002068016821F0010101600098401C0090B7
:10105000B84203D820680068C007F6D184F835800C
:1010600084F83490E16C002910D001B02046BDE82E
:10107000F04308470168C905D5D4016821F0100183
:10108000016084F8358084F83490CCE7BDE8F883BB
:10109000240900202DE9F041044600F0BFF906467E
:1010A0005CB1022084F83500002584F834502068B3
:1010B000016821F0010101600DE00120BDE8F0812F
:1010C00000F0ACF9801B052805D9202060650320BD
:1010D00084F83500F2E720680068C007F0D1226884
:1010E000116820480140D4E901031843D4E90336CC
:1010F0003343184363691843A3691843E3691843EA
:10110000236A18430843616A042903D1D4E90B1305
:1011100019430843106020684069666A20F007019F
:1011200030460E43012704280CD1A06A0643E06A2A
:1011300040B12046FFF726FC20B14020606584F8CE
:101140003570BAE7206846612046FFF707FC94F83F
:101150005C203F2191408160656584F835700020F6
:10116000ACE700003F8010F02DE9F0410446866DA9
:1011700090F83400002501280DD0012084F83400B7
:1011800094F835700020012F07D084F83400022530
:101190002846BDE8F0810220FBE7022784F835707D
:1011A00060652046FFF718FC94F85C103F208840EB
:1011B000B0602068016841F016010160206C20B128
:1011C0002068016841F0080101602068016841F071
:1011D00001010160DCE7000070B5044600F01EF973
:1011E0000546601C02D004480078044400F016F95B
:1011F000401BA042FAD370BD1809002070470000C0
:10120000044910B50A68024202D00860FFF7F6FFF1
:1012100010BD0000143C01402DE9F84FDFF8B8A1E3
:101220000022012403254FF00F090AF1040BAAF153
:10123000040E00BF0B6804FA02F63340B34273D1C8
:101240000F7907F00307012F01D0022F16D187680D
:101250004FEA420805FA08FC27EA0C07D1F80CC04F
:101260000CFA08FC4CEA070CC0F808C04768B74302
:101270000E79C6F3001696403E4346600E79F6435B
:10128000B6070DD0C768560005FA06FC27EA0C071A
:10129000D1F808C00CFA06FC4CEA070CC0F80CC0E8
:1012A0000E7906F00306022E10D1D60800EB860850
:1012B000D8F8206057074FEAD76C09FA0CF7BE43FD
:1012C0000F6907FA0CF73743C8F8207006684FEA31
:1012D000420C05FA0CF7BE430F7907F0030707FA33
:1012E0000CF7374307604E6816F4403F6DD03B4E15
:1012F000376847F480473760366822F0030706F402
:1013000080460096364E07EB060CDCF80868970717
:101310003F0F09FA07F826EA0806DFF8C8804045BB
:1013200003D14FF000081EE04FE0DFF8BC804045DD
:1013300002D14FF0010816E0DFF8B080404502D13D
:101340004FF002080FE0DFF8A880404502D14FF0CF
:10135000030808E0DFF89C80404502D14FF0040804
:1013600001E04FF0070808FA07F848EA0608CCF849
:101370000888DAF800605746D1F804C09E435FEA57
:10138000CC2C00D51E433E60DBF800605F46D1F8F0
:1013900004C09E435FEA8C2C00D51E433E60DEF8FD
:1013A00000607746D1F804C09E435FEA8C3C00D5CC
:1013B0001E433E60084F083F3E68D1F804C09E437C
:1013C0005FEACC3C00D51E433E60521C102AFFF45D
:1013D00031AFBDE8F88F0000083C014044380240BE
:1013E00000300140000002400004024000080240BA
:1013F000000C0240001002400069084000D00120AB
:101400007047426921EA02030A4043EA02418161CE
:1014100070470AB1816170470904FBE701488068A1
:1014200070470000180900200248816802781144C2
:1014300081607047180900200B4810B5016841F41D
:1014400000710160016841F480610160016841F44C
:1014500080710160032000F06FF80E2000F006F8A4
:1014600000F024F8002010BD003C024070B50D4D86
:1014700004464FF47A712878B1FBF0F00A49096804
:10148000B1FBF0F000F00CFB48B9102C07D20022A1
:101490002146501E00F030F800206C6070BD012025
:1014A00070BD000018090020240900200A4808B572
:1014B000016841F480410160006800F480400090C0
:1014C0000548001F016841F080510160006800F08C
:1014D0008050009008BD000044380240002809DB1D
:1014E00000F01F02012191404009800000F1E0203E
:1014F000C0F8001170470000F0B40E4B1B680C469A
:10150000C3F30223C3F10705042D00D90425191DD7
:10151000072901D2002300E0DB1E012606FA05F1AF
:10152000491E214099409E40761E16403143F0BC32
:1015300002F002BE0CED00E0064900F00702086868
:101540004FF6FF03184040EA0220034A10430860A8
:10155000704700000CED00E00000FA052DE9F047AF
:101560000E46050065D0DFF81481D8F80000F7B208
:1015700000F00700B04207D288F80070D8F80000E9
:1015800000F00700B04254D128683D4C810712D5C5
:10159000400703D5206840F4E05020602878000719
:1015A00003D5206840F4604020602068A96820F0DE
:1015B000F000084320602878C0072DD030496868C3
:1015C0000839012812D0022813D0032811D0096845
:1015D000890700292DDA216821F0030101432160E8
:1015E000FFF71CFF814641F2883A0EE00968890343
:1015F000EFE709688901ECE7FFF710FFA0EB0901AD
:10160000514502D90320BDE8F0872068696800F0E1
:101610000C00B0EB810FEFD1D8F80010404601F07C
:101620000701B14207D90770006800F00700B04217
:1016300001D00120E7E72878400705D52068E96850
:1016400020F4E050084320602878000706D5206881
:10165000296920F4604040EAC100206000F038F8B9
:101660002168084AC1F30311515CC840064908606B
:1016700006480068FFF7FAFE0020C4E7003C02407D
:101680000838024098580008240900201C0900204E
:101690000448054900680968044AC1F38221515C85
:1016A000C84070472409002008380240A8580008A4
:1016B0000448054900680968044AC1F34231515C95
:1016C000C84070472409002008380240A858000884
:1016D000154810B5006810F00C02144813D01449D6
:1016E000042A0FD0082A0ED10F4C241F2268236829
:1016F00002F03F025B0207D52068C0F38810A0FB10
:10170000010106E0084610BD2168C1F38811A1FB64
:1017100000010023FEF75CFD2168C1F30141491C73
:101720004900B0FBF1F010BD083802400024F4007D
:1017300040787D012DE9F84F04006ED02078DFF865
:101740004C93C007A9F104054AD009F104000168CF
:10175000C1F38101012908D00068C0F3810002288B
:101760000AD1D9F80000400206D52868800337D591
:1017700060680028E1D033E06068B0F5803F10D0A9
:10178000B0F5A02F286810D020F480302860286899
:1017900020F4802028606068A8B1FFF73FFE06466D
:1017A0000DE0286840F48030F4E740F480202860A1
:1017B000F7E700BFFFF732FE801B642873D8286864
:1017C0008003F7D50CE0FFF729FE064605E000BFD1
:1017D000FFF724FE801B6428F0D828688003F7D424
:1017E0002078DFF8AC8280074FF0000A3ED5A7488A
:1017F000001D016811F00C0F08D00068C0F38100D3
:1018000002280BD1D9F80000400207D428688007CD
:1018100016D5E068012800D112E033E1E068B8B1E4
:101820000120C8F80000FFF7F9FD064605E000BFFB
:10183000FFF7F4FD801B0228C0D828688007F7D581
:101840002868216920F0F80040EAC10028600DE016
:10185000C8F800A0FFF7E2FD064604E0FFF7DEFD52
:10186000801B02281FD828688007F7D4207800073B
:1018700022D5864F87486169703771B101210160B7
:10188000FFF7CCFD064604E0FFF7C8FD801B0228E9
:1018900009D838688007F7D50EE0C0F800A0FFF738
:1018A000BDFD064605E082E0FFF7B8FD801B02287B
:1018B0007DD838688007F7D42078400768D5DFF8EE
:1018C000CCB100270BF13C0BDBF80000C0000BD4BF
:1018D000DBF8001041F08051CBF80010DBF800007D
:1018E000012700F0805000906B4E3068C00510D486
:1018F000306840F480703060FFF790FD009005E0A4
:10190000FFF78CFD0099401A022850D83068C005B6
:10191000F6D55E4EA0686C3601280FD005283068D9
:1019200010D020F001003060306820F004003060FA
:10193000A068B8B1FFF772FD00900FE0306840F08A
:101940000100F4E740F004003060F7E7FFF766FDC0
:101950000099411A41F28830814266D83068800788
:10196000F4D50EE0FFF75AFD009007E0FFF756FDB3
:101970000099411A41F28830814256D83068800778
:10198000F4D42FB1DBF8001021F08051CBF8001017
:10199000A069C8B33D49091D0968C1F38101022945
:1019A0004AD00228504607D0C8F8600000E03CE06A
:1019B000FFF734FD04463BE04746C8F86000FFF7F8
:1019C0002DFD064605E000BFFFF728FD801B02281D
:1019D0002BD828688001F7D4D4E907010843A16A0D
:1019E0002E4A490802EB0141626A41EA821108432A
:1019F00094F82C1040EA0161C9F800100120386603
:101A0000FFF70CFD044606E03EE000BFFFF706FDD1
:101A1000001B022809D828688001F7D534E000BFF0
:101A2000FFF7FCFC001B022802D90320BDE8F88F59
:101A300028688001F4D427E00128F7D0D9F8000005
:101A4000E26900F4800191421CD1226A00F03F015A
:101A5000914217D147F6C071626A0140B1EB821F13
:101A600010D1A26A4FF0FF3300F4403103EB520271
:101A7000B1EB024F06D194F82C1000F07060B0EB7F
:101A8000016F01D00120D1E70020CFE704380240E8
:101A900000004742800E4742007000400000FFFFF8
:101AA00010B5401EB0F1807F01D3012010BD4FF072
:101AB000E02460610F21601702F03EFB0020A0616E
:101AC00007202061002010BD7047704710B590F8C6
:101AD0003C20012A22D0012280F83C20CA688C6870
:101AE00022F4407222434C6822F4806222430C6844
:101AF00022F4006222430C6922F4805222434C6992
:101B000022F400522243C969002322F480420A438E
:101B100001684A6480F83C30002010BD022010BDEE
:101B200070B590F83C20012A2CD0012480F83C406C
:101B3000022280F83D2003685A689D6822F07006F2
:101B40000A6832435A60104B02689A420ED0B2F1D2
:101B5000804F0BD00D4B9A4208D00D4B9A4205D0C6
:101B60000C4B9A4202D00C4B9A4204D1496825F0A2
:101B700080031943916080F83D40002180F83C10BB
:101B8000084670BD022070BD000001400004004006
:101B900000080040000C00400040014010B5040067
:101BA00003D094F83D0010B107E0012010BD0020E3
:101BB00084F83C00204600F01FF8022084F83D0025
:101BC000211D206801F092FE012084F8460084F86F
:101BD0003E0084F83F0084F8400084F8410084F817
:101BE000420084F8430084F8440084F8450084F8F7
:101BF0003D00002010BD000010B586B00446142141
:101C00006846FEF71DFB31482268002330498242B6
:101C100007D1086840F001000860086800F0010082
:101C200047E02B48001FB2F1804F15D0294B9A4254
:101C300035D1016841F0040101600068002200F024
:101C40000400059011461E20FFF756FC5FF01E00B1
:101C5000FFF744FC06B010BD016841F001010160CE
:101C6000006800F00100059019481438016841F03F
:101C7000010101600068022100F0010005900120CF
:101C80008DE80B00CDE9033069461348FFF7C4FA2D
:101C9000002211461C20FFF72FFC1C20D8E70F4B19
:101CA0009A4208D1016841F008010160006800F023
:101CB00008000590CEE70A488242CBD1086840F47C
:101CC00080300860086800F48030F2E700000140CE
:101CD000443802400008004000000240000C004070
:101CE0000040014090F83D10012901D001207047CB
:101CF000022180F83D100168CA6842F00102CA6002
:101D000000680E4988420ED0B0F1804F0BD00C49CC
:101D1000884208D00B49884205D00B49884202D03E
:101D20000A49884204D1816801F00701062903D0DD
:101D3000016841F00101016000207047000001408E
:101D40000004004000080040000C0040004001403A
:101D500070B5044690F83C000025012817D00126F4
:101D600084F83C60022084F83D002068826822F0FC
:101D7000770222F47F4282600868502838D00DDC58
:101D800020284FD005DC90B3102811D14AE0022062
:101D900070BD302846D040280AD13BE060282FD0C3
:101DA00070280DD0B0F5805F03D0B0F5005F12D081
:101DB000012584F83D60002084F83C00284670BD71
:101DC000CB68D1E90121206801F0E9FD2068816834
:101DD00041F0770109E0CB68D1E90121206801F0E9
:101DE000DEFD2068816841F480418160E1E719E00F
:101DF000CA684968206801F0CDFE5021206806E0DD
:101E0000CA684968206801F00DFF6021206801F070
:101E1000D0FDCEE7CA684968206801F0BBFE4021CA
:101E20002068F4E7226801461046F0E7017F0129A7
:101E30002CD1174900680968884227D14FF08040AB
:101E4000416B491C00EE101A1349F8EE400A9FED51
:101E5000110A80EE201A81ED091A826B521C00EEE5
:101E6000902A426BB8EE601A521C00EE902AF8EEEF
:101E7000600AC1EE201AC1ED081A806B00EE900ACC
:101E8000F8EE600A80EE801A81ED0A1A70470000B1
:101E9000F0090020A037A04CC00800202DE9F04137
:101EA000054690F83C0000260C46012810D0012081
:101EB00085F83C0072B1042A1CD0082A2CD00C2AC8
:101EC00050D00126002085F83C003046BDE8F08166
:101ED0000220FBE7D4E90012E368286801F06CFEF9
:101EE0002868816921F00C01816128688169A268F4
:101EF00011430FE0D4E90012E368286801F0A4FE62
:101F00002868816921F44061816128688169A2683B
:101F100041EA02218161D5E72868D4E9002C277BBA
:101F2000016A21F480710162C169036A21F0030131
:101F300041EA0C0121F0F00C39074FF420674CEA1C
:101F4000116123F4206307EA02221A43C16102628D
:101F50002868C16921F00C01C1612868C169A268C3
:101F6000114328E02868D4E90027E168036A23F4D4
:101F700080530362D0F81CC0036A2CF4407C4CEA06
:101F800007274FF6FF7C27F470470CEA01313943ED
:101F90004FF4204723F4204307EA02321A43C16179
:101FA00002622868C16921F44061C1612868C16981
:101FB000A26841EA0221C16184E710B5040003D0A0
:101FC00094F83D0010B107E0012010BD002084F816
:101FD0003C00204600F01EF8022084F83D00211D40
:101FE000206801F083FC012084F8460084F83E005C
:101FF00084F83F0084F8400084F8410084F84200EF
:1020000084F8430084F8440084F8450084F83D00D7
:10201000002010BD7047000030B50446002551B1C6
:1020200004290DD0082910D094F8412094F84500D7
:10203000012A11D10EE094F83E2094F84200F7E70F
:1020400094F83F2094F84300F2E794F8402094F885
:102050004400EDE7012801D0012030BD022059B134
:10206000042912D0082919D084F8410084F84500C9
:102070000C293ED001253AE084F83E0084F8420065
:102080002068C26842F0020210E084F83F0084F841
:1020900043002068C26842F0040207E084F8400070
:1020A00084F844002068C26842F00802C26001223D
:1020B000206801F067FC1149206888420ED0B0F119
:1020C000804F0BD00E49884208D00E49884205D077
:1020D0000D49884202D00D49884204D1816801F03F
:1020E0000701062903D0016841F00101016028467B
:1020F00030BD2068C26842F01002D7E700000140FE
:102100000004004000080040000C00400040014076
:1021100070B50446006801694FF00005C94389079E
:1021200015D4C168C943890711D4E91E0161012092
:102130002077206880698007204602D0FFF776FE6E
:1021400004E000F0EFF8204600F081F925772068E0
:102150000169C943490717D4C168C943490713D462
:102160006FF004010161022020772068806910F47B
:10217000407F204602D0FFF759FE04E000F0D2F87D
:10218000204600F064F9257720680169C9430907F2
:1021900016D4C168C943090712D46FF00801016160
:1021A000042020772068C0698007204602D0FFF70E
:1021B0003DFE04E000F0B6F8204600F048F925772F
:1021C00020680169C943C90617D4C168C943C90653
:1021D00013D46FF010010161082020772068C069D6
:1021E00010F4407F204602D0FFF720FE04E000F00C
:1021F00099F8204600F02BF9257720680169C9433A
:10220000C90708D1C168C943C90704D1891E016142
:10221000204600F075F920680169C943090609D410
:10222000C168C943090605D46FF0800101612046E9
:10223000FFF74AFC20680169C943490609D4C1680F
:10224000C943490605D46FF040010161204600F002
:102250008EF920680169C94389060BD4C168C94356
:10226000890607D46FF0200101612046BDE8704067
:10227000FFF72BBC70BD000030B587B004461421B9
:102280006846FDF7DDFF2468204D00222049022327
:102290002048AC4210D10C6844F001040C6009687D
:1022A00001F00101059181150091CDE90132012173
:1022B000CDE90321694612E0174DAC4213D10868FD
:1022C00040F0020008600868694600F002000590CE
:1022D0004FF450700090CDE90132104813E0FEF742
:1022E0009BFF07B030BD0E4DAC42FAD10C6844F0F4
:1022F00001040C60096801F00101059104210091BD
:10230000CDE901326946CDE90323E8E70000014049
:102310003038024000000240000800400004024043
:10232000000C0040704770B5044690F83C00002651
:102330000D4601280FD0012084F83C006AB1042A20
:102340001DD0082A2FD00C2A3FD00126002084F867
:102350003C00304670BD022070BD206801F032FBA9
:102360002068816941F0080181612068816921F05C
:1023700004018161206881692A69114311E02068A4
:1023800001F048FB2068816941F4006181612068A7
:10239000816921F480618161206881692A6941EA4B
:1023A00002218161D2E7206801F060FB2068C169E9
:1023B00041F00801C1612068C16921F00401C161D7
:1023C0002068C1692A69114311E0206801F07AFB95
:1023D0002068C16941F40061C1612068C16921F4CC
:1023E0008061C1612068C1692A6941EA0221C16135
:1023F000ACE710B5040003D094F83D0010B107E03D
:10240000012010BD002084F83C00204600F01EF89A
:10241000022084F83D00211D206801F067FA0120A8
:1024200084F8460084F83E0084F83F0084F84000B9
:1024300084F8410084F8420084F8430084F84400A2
:1024400084F8450084F83D00002010BD70477047B7
:1024500010B50446022249B104290ED0082913D030
:1024600094F84100012816D0012010BD94F83E00D8
:102470000128F9D184F83E200FE094F83F000128AC
:10248000F2D184F83F2008E094F840000128EBD115
:1024900084F8402001E084F841200122206801F006
:1024A00071FA12492068884203D1426C42F400421A
:1024B0004264206888420ED0B0F1804F0BD00C49A6
:1024C000884208D00B49884205D00B49884202D087
:1024D0000A49884204D1816801F00701062903D026
:1024E000016841F001010160002010BD00000140C1
:1024F0000004004000080040000C00400040014083
:102500000349884203D103484168491C4160704730
:10251000380A0020C008002070B5044690F83C003E
:10252000012812D0012584F83C50022084F83D0097
:10253000204601F0E9FA01004FF0000007D084F8CE
:102540003D5084F83C00012070BD022070BD216820
:10255000CA6822F04002CA602168CA6822F4804238
:10256000CA6084F83D5084F83C00002070BD70477C
:1025700038B5044690F83E00202822D181B17AB1C6
:1025800094F83C0001281CD0012084F83C00206312
:10259000204601F01FFD002803D1216B012901D045
:1025A000012038BD21680A684968009121680C3112
:1025B00051E8002F42F0100241E80023002BF5D132
:1025C00038BD022038BD00002DE9F05F0F464449B8
:1025D00088427DD100244FF48079DFF80881424E93
:1025E0006CE0305D3E2868D13E49642301222C31E5
:1025F0003B4800F097FA3519687801285DD13949D0
:10260000642301222D31364800F08CFAA8780A287C
:1026100008D00B280AD00C280CD0D8F81C000328AE
:102620000BD01CE00121C8F81C1032E00221C8F8D0
:102630001C1018E00321C8F81C10DFF8B0A000221D
:1026400049465046FEF7E5FEE8784FF47A7110FBF4
:1026500001F0FEF7C1FD49465046FEF7D2FED8F81C
:102660001C00022811D1DFF888A0002249465046FC
:10267000FEF7CFFEE8784FF47A7110FB01F0FEF719
:10268000ABFD49465046FEF7BCFED8F81C000128B9
:1026900013D1DFF860B04FF4804A0022514658460B
:1026A000FEF7B7FEE8784FF47A7110FB01F0FEF701
:1026B00093FD51465846FEF7A4FE641CBC4290DBD5
:1026C000322209490648FFF753FF0B48006800E033
:1026D00003E0016821F008010160BDE8F09F0000FF
:1026E000100B0020C00800202C0900200000024030
:1026F0000004024000080240540B00207047000014
:10270000F8B5016804460868CA684B6910F00F0FF5
:102710004FF0000559D003F0010602F490773743DB
:1027200065D0C10705D0D10503D5216C41F0010169
:102730002164410705D5D90703D0216C41F002017E
:102740002164810705D5D90703D0216C41F004012C
:102750002164010707D502F02001314303D0216C29
:1027600041F008012164216C00293AD0800604D58B
:10277000900602D5204601F047FB20684069216C95
:10278000C0F38010090700D460B3204601F007FBB6
:1027900020684069400621D52068143050E8001FA9
:1027A00021F0400140E80012002AF5D1A06BA8B149
:1027B0006C490165A06BFEF78AFB002811D0A06B65
:1027C000016D01B0BDE8F040084783060FD59306C0
:1027D0000DD52046BDE8F84001F016BB2046FFF7B6
:1027E0008DFFF8BD2046FFF789FF2564F8BD266BF5
:1027F0002023012E79D1C60677D5D60675D508686F
:10280000486800904869400640D5A16B0868406858
:102810000004000CEAD0A28D8242E7D9E085C869A5
:10282000B0F5807F2DD020680C3050E8001F21F4D7
:10283000807140E80012002AF5D12068143050E879
:10284000001F21F0010140E80012002AF5D12068A4
:10285000143050E8001F21F0400140E80012002A27
:10286000F5D184F83E30256320680C3050E8001F15
:1028700021F0100140E80012002AF5D1A06BFEF70C
:10288000DDFAA08DE18D401A81B229E0A08DE18DA5
:10289000401A81B2E08D0028A8D00029A6D0206877
:1028A0000C3050E8002F22F4907240E80026002EF1
:1028B000F5D12068143050E8002F22F0010240E8E2
:1028C0000026002EF5D184F83E30256320680C30B8
:1028D00050E8002F22F0100240E80023002BF5D131
:1028E0002046FFF771FEF8BDFFE705062BD515065C
:1028F00029D594F83D002128F5D1A068B0F5805F76
:1029000001D12069B0B1206A411C216221680078A0
:102910004860E08C401E0004000CE084E3D1206895
:10292000C16821F08001C1602068C16841F04001A8
:10293000C160D8E7206A0088C0F308004860206AB8
:10294000801C2062E5E74006CDD55006CBD5CA688D
:10295000204622F04002CA6084F83D3000F05AF967
:10296000C1E70000A93C000870B5040004D094F849
:102970003D00002510B106E0012070BD84F83C50F8
:10298000204600F023F8242084F83D002068C16828
:1029900021F40051C160204601F096FA20680169D7
:1029A00021F4904101612068416921F02A014161CF
:1029B0002068C16841F40051C1602564202084F87A
:1029C0003D0084F83E00002070BD00002DE9F0417C
:1029D00086B0064614216846FDF732FC304930685F
:1029E000884259D12F480024016841F0100101604C
:1029F000006800F0100005902A481438016841F082
:102A0000010101600068694600F0010005904FF483
:102A1000C06000900220CDE901040320039007204C
:102A200004902148FEF7F8FB214D20484FF0006745
:102A30002860C5E901744FF48068C5E903486C61FA
:102A4000AC61EC612C6228466C62FEF723FB08B196
:102A5000FEF714F8B563AE63154D14486035783051
:102A6000E5E802074020A5E81101114845F814499E
:102A70006030AC61EC612C626C62FEF70BFB08B15C
:102A8000FDF7FCFF756300220F212520AE63FEF7E2
:102A900033FD2520FEF722FD06B0BDE8F0810000E1
:102AA00000100140443802400000024040640240EF
:102AB000540B002090F83E30202B0ED159B152B16A
:102AC00090F83C30012B08D0012380F83C300023E3
:102AD000036301F07FBA01207047022070470000B5
:102AE0000C4910B5884214D103220B49094800F063
:102AF00072F809480078312804D14FF40051074892
:102B0000FEF77FFCBDE81040322203490148FFF781
:102B1000D1BF10BD100B00202C090020000802407E
:102B2000704700002DE9F843044690F83D001F4629
:102B300016460D4620284CD1C5B1BEB194F83C00D4
:102B4000012846D0012084F83C004FF00008C4F86A
:102B50004080212084F83D00FEF760FCA684814679
:102B6000E684A068B0F5805F03D004E00120BDE8F2
:102B7000F883206928B12E465FF0000584F83C8078
:102B80000EE00026FAE78021204601F06DFAA0B998
:102B9000AEB116F8010B21684860E08C401EE0845D
:102BA000E08C4B464FF0000200970028EBD14FF02D
:102BB0004001204601F058FA30B10320D7E735F83C
:102BC000020BC0F30800E6E7202084F83D00002057
:102BD000CDE70220CBE790F83D30202B18D1A9B1EA
:102BE000A2B190F83C30012B12D001628284C284E1
:102BF00000210164212280F83D2080F83C1000680B
:102C0000C16841F08001C160002070470120704719
:102C1000022070477047FEE72DE9F04F85B0142180
:102C20006846FDF70DFBDFF870A24FF470470022F5
:102C3000394655465046FEF7ECFB01240026009726
:102C4000CDE90146694628460396FEF7E5FA4FF0BE
:102C50003809CDF80090CDE9016469462846FEF7B1
:102C6000DBFADFF83882E503694640460095FEF757
:102C7000D3FA0A20FEF7B0FA29464046FEF7BCFB1D
:102C80004FF4804B90BB002238215046FEF7C1FB29
:102C9000002229464046FEF7BCFBCDE90094694678
:102CA0005046FEF7B9FA694640460095FEF7B4FA79
:102CB0000097CDE9016469465046FEF7ADFA0A2057
:102CC000FEF78AFA29465046FEF796FBA0B1594610
:102CD0005046FEF791FB98B161035046FEF78CFB1E
:102CE00080B121035046FEF787FB68B108215046AA
:102CF000FEF782FB50B13EE00A2005B0BDE8F08F40
:102D00000320FAE70220F8E70120F6E70022382145
:102D10005046FEF77EFB002229464046FEF779FB2F
:102D2000CDE9009469465046FEF776FA694640467A
:102D30000095FEF771FA0097CDE9016469465046A7
:102D4000FEF76AFA0A20FEF747FA29465046FEF7D0
:102D500053FBB0B159465046FEF74EFB98B14FF4C5
:102D600000515046FEF748FB78B14FF48051504671
:102D7000FEF742FB58B110215046FEF73DFB40B133
:102D80003CE00B20B9E70620B7E70520B5E70420B3
:102D9000B3E7002238215046FEF73BFB00222946CC
:102DA0004046FEF736FBCDE9009469465046FEF7F3
:102DB00033FA694640460095FEF72EFA0097CDE9B2
:102DC000016469465046FEF727FA0A20FEF704FA26
:102DD00029465046FEF710FBB0B159465046FEF763
:102DE0000BFB98B14FF400515046FEF705FB78B14C
:102DF0004FF480515046FEF7FFFA58B1202150465B
:102E0000FEF7FAFA40B13EE00C2076E7092074E7BD
:102E1000082072E7072070E7002238215046FEF7AD
:102E2000F8FA002229464046FEF7F3FACDE900946D
:102E300069465046FEF7F0F9694640460095FEF7B0
:102E4000EBF90097CDE9016469465046FEF7E4F9D5
:102E50000A20FEF7C1F929465046FEF7CDFAA0B187
:102E6000594654465046FEF7C7FA80B14FF4005118
:102E70002046FEF7C1FA002884D04FF48051204646
:102E8000FEF7BAFA28B1142037E70D2035E70E20F7
:102E900033E70F2031E70000000402400000024049
:102EA0007FB500241F480094019402941C490394A8
:102EB000016001254FF400310561C0E90114047679
:102EC00080F8205018494562C0E90A140326C661FB
:102ED000C46080F830404561FDF77BFE08B1FDF726
:102EE000CDFD0420CDE90005694602940D48FDF7AB
:102EF000C7FD08B1FDF7C2FD0220CDE900606946BB
:102F00000848FDF7BDFD08B1FDF7B8FD6946054865
:102F10000196FDF7B5FD002801D0FDF7AFFD7FBD9F
:102F200000200140600900200100000F0D4808B595
:102F3000016841F4800101600068002200F4800013
:102F4000009011463A20FEF7D7FA3A20FEF7C6FA6B
:102F5000002211464620FEF7CFFABDE80840462081
:102F6000FEF7BCBA303802402DE9F04786B0142194
:102F70006846FDF765F957480024016841F00401EF
:102F80000160016801F004010591016841F08001D0
:102F90000160016801F080010591016841F00101C3
:102FA0000160016801F001010591016841F0020131
:102FB00001600068484F00F002004FF40055059092
:102FC000002229463846FEF724FA012296033146AC
:102FD0003846FEF71EFADFF8049148F2E0080022B6
:102FE00041464846FEF715FADFF8F4A0002240F209
:102FF0003F415046FEF70DFA00950125CDE90154F9
:10300000694638460394FEF707F9CDE90065CDE936
:10301000025469463846FEF7FFF802264FF4881737
:103020000096CDE9017569464846FEF7F5F8CDF8FA
:103030000080CDE90154694648460394FEF7ECF858
:103040000320CDE90005CDE9024669465046FEF76A
:10305000E3F840F23C400090CDE901546946504607
:103060000394FEF7D9F84FF4704000904FF4041029
:10307000CDE9010569465046FEF7CEF8E802CDE9F4
:103080000004694648460294FEF7C6F88020CDE960
:103090000007694602955046FEF7BEF800220F2150
:1030A0000720FEF729FA0720FEF718FA002211463A
:1030B0001720FEF721FA1720FEF710FA00220F2141
:1030C0002820FEF719FA2820FEF708FA06B0BDE816
:1030D000F087000030380240000802400000024043
:1030E0000004024010B596B000240F94109411947F
:1030F000129413941C2108A81494FDF7A1F8202120
:103100006846FDF79DF82848264901605321C0E92B
:10311000011440F2E731C0E9031444618461FEF711
:103120003DFD08B1FDF7AAFC4FF480500F900FA9A8
:103130001D48FEF70DFE08B1FDF7A0FC1A48FFF789
:1031400058F908B1FDF79AFC139413A91648149482
:10315000FEF7E6FC08B1FDF791FC6020CDE908041C
:103160000A940B940C940D94002208A90E480E9416
:10317000FFF7D9F808B1FDF781FC00944FF4005037
:10318000CDE90440029401940394694606480794EB
:10319000FEF79CFC08B1FDF771FC0348FFF76CF8E3
:1031A00016B010BD00000140A809002010B590B075
:1031B000002409940A940B94142104A80C94FDF79C
:1031C0003FF82B480D940E940094019402944FF014
:1031D00080410394C0E90014611EC0E9024104610A
:1031E0008461FEF7DBFC08B1FDF748FC4FF480502A
:1031F000099009A91E48FEF7ABFD08B1FDF73EFC9A
:103200001B48FEF7DAFE08B1FDF738FC04200490F5
:103210005020CDE9050404A915480894FFF77CF96E
:1032200008B1FDF72BFC0D940DA911480E94FEF783
:1032300077FC08B1FDF722FC0120CDE900400294A3
:10324000002269460A480394FEF728FE08B1FDF7FC
:1032500015FC022000900190042269460448FEF704
:103260001DFE002801D0FDF709FC10B010BD0000C4
:10327000F009002010B58EB000240794089409943A
:103280000A940B941C2168460C94FCF7D9FF26483D
:10329000244901605321C0E9011440F2E731C0E93B
:1032A00003148461FEF77AFC08B1FDF7E7FB4FF4E5
:1032B0008050079007A91C48FEF74AFD08B1FDF7AA
:1032C000DDFB1948FFF795F808B1FDF7D7FB0B9424
:1032D0000BA915480C94FEF723FC08B1FDF7CEFBB3
:1032E0006020CDE900040294002269460E4804944F
:1032F000FFF719F808B1FDF7C1FB082269460A4833
:10330000FFF711F808B1FDF7B9FB0C226946064832
:10331000FFF709F808B1FDF7B1FB0348FEF7ACFF72
:103320000EB010BD00080040380A002010B58EB065
:1033300000240794089409940A940B941C2168466D
:103340000C94FCF77DFF1F481D4901605321C0E923
:10335000011440F2E731C0E9031480218161FEF7D6
:103360001DFC08B1FDF78AFB4FF48050079007A9B8
:103370001448FEF7EDFC08B1FDF780FB1148FFF79C
:1033800038F808B1FDF77AFB0B940BA90D480C94A3
:10339000FEF7C6FB08B1FDF771FB6020CDE9000424
:1033A00002940822694607480494FEF7BCFF08B15E
:1033B000FDF764FB0348FEF75FFF0EB010BD000091
:1033C000000C0040800A00201FB500211048009129
:1033D000019102910D4A0391C0E900214FF6FF725D
:1033E000C0E9021201618161FEF7D8FB08B1FDF767
:1033F00045FB4FF48050009069460548FEF7A8FC55
:10340000002801D0FDF73AFB1FBD0000004001403D
:10341000C80A00200C4810B50A4901604FF4E13198
:103420004160002181600C22C160C0E90412816109
:10343000C161FFF799FA002803D0BDE81040FDF7FD
:103440001DBB10BD00100140100B0020FEE7FEE781
:1034500070B5002404F1B000C0B2002100F074F98E
:103460000021084600F070F90021102000F06CF9EE
:1034700000250121002000F067F96D1CEDB2802DC0
:10348000F7D3641CE4B2082CE4D370BD10B5494CEA
:10349000012211462046FDF7BCFF6420FDF79CFE8B
:1034A000002201212046FDF7B4FFC820FDF794FE5D
:1034B000012211462046FDF7ACFF0021AE2000F0AE
:1034C00043F90021084600F03FF90021102000F0E8
:1034D0003BF90021402000F037F90021812000F065
:1034E00033F90021CF2000F02FF90021A12000F0B6
:1034F0002BF90021C82000F027F90021A62000F0B8
:1035000023F90021A82000F01FF900213F2000F03E
:103510001BF90021D32000F017F90021084600F024
:1035200013F90021D52000F00FF90021802000F0D0
:103530000BF90021D92000F007F90021F12000F05B
:1035400003F90021DA2000F0FFF80021122000F03A
:10355000FBF80021DB2000F0F7F80021402000F00C
:10356000F3F80021202000F0EFF80021022000F005
:10357000EBF800218D2000F0E7F80021142000F086
:10358000E3F80021A42000F0DFF80021A62000F0DD
:10359000DBF80021AF2000F0D7F80021AF2000F0C9
:1035A000D3F8FFF755FF0021BDE81040084600F0B2
:1035B00003B800000004024010B50446B031C8B2A0
:1035C000002100F0C1F8102040EA1410002100F0A2
:1035D000BBF804F00F00BDE8104040F001000021EE
:1035E00000F0B2B82DE9F04115460E460746FFF748
:1035F000E3FF0F48002400EB85150121285D00F052
:10360000A3F8641CE4B2102CF7D3761CF1B2384650
:10361000FFF7D2FF00242819012190F8200000F0C4
:1036200093F8641CE4B2102CF5D3BDE8F0810000DF
:10363000000000202DE9F041203A00240D4680468C
:10364000D7B27F2803D900208D1C8046EDB22946D1
:10365000FFF7B2FF0F4E00BF04EB07100121305CF3
:1036600000F072F8641CE4B2082CF5D36D1CE9B2CA
:103670004046FFF7A1FF002404EB0710304401216E
:10368000007A00F061F8641CE4B2082CF4D3BDE8C1
:10369000F0810000A05200082DE9F04117460E46C7
:1036A000044600250CE031462046FFF7C3FF0834EE
:1036B000E4B2782C02D90024B61CF6B26D1CEDB22F
:1036C0007A5D002AEFD1BDE8F081000030B52DED24
:1036D000028B91B00C460546B0EE408A4021684608
:1036E000FCF7AEFD18EE100AFCF754FE41EC100B8F
:1036F00007A153EC102B684600F00AFD6A462146EC
:103700002846FFF7C9FF11B0BDEC028B30BD0000A9
:1037100025302E316600000070B590B00D4606468B
:10372000144640216846FCF78BFD224605A16846F9
:1037300000F0EEFC6A4629463046FFF7ADFF10B0B8
:1037400070BD0000256400002DE9F0411B4E0546C8
:1037500009B1012200E0002202213046FDF759FEA6
:103760004FF48068002241463046FDF752FE144F68
:103770000024002220213846FDF74BFE280601D503
:10378000012200E0002280213846FDF742FE01229E
:1037900020213846FDF73DFE6806641C050EE4B2A4
:1037A000082CE6D3012241463046FDF732FE304672
:1037B000BDE8F04101220221FDF72BBE00040240CA
:1037C00000000240704770471CB50B4604460A28AB
:1037D00000D2632411461846FDF70EFE1149087009
:1037E0004C218DF800100A21B4FBF1F230328DF833
:1037F0000120B4FBF1F201FB124130318DF80210CF
:1038000052218DF8031008B1312000E030208DF8EE
:1038100004004FF0FF33052269460348FFF782F9A1
:103820001CBD0000C0080020100B0020FDF7FCBDEF
:1038300030B593B030216846FCF702FD14210CA886
:10384000FCF7FEFC1D480024016841F08051016036
:10385000006800F0805011901948016821F440413F
:1038600041F4004101600068022500F440401190DD
:103870000120039010200490009506950820CDE9C2
:1038800007405420CDE9090504200B906846FDF758
:1038900051FF08B172B6FEE70F20CDE90C054FF4D9
:1038A0008050CDE90E4002210CA81094FDF756FE81
:1038B000002801D072B6FEE713B030BD4038024098
:1038C000007000400248016841F4700101607047D7
:1038D00088ED00E00148FEF71BBC0000F009002065
:1038E0000148FEF715BC0000380A0020F0B5026858
:1038F0001D4B1E4C9F031E4D1E4E984207D0B842D2
:1039000005D0A04203D0A84201D0B04204D122F099
:10391000700C4A6842EA0C02984210D0B8420ED0AD
:10392000A0420CD0A8420AD0B04208D0124CA0420B
:1039300005D0124CA04202D0114CA04203D122F477
:103940004074CA6822434C6922F08002224302601C
:103950008A68C2620A688262984201D10969016379
:1039600001214161F0BD0000000001400004004061
:1039700000080040000C00400040014000440140AD
:103980000048014010B501F01F030121046A99406D
:103990008C430462016A9A401143016210BD10B564
:1039A000846842EA032224F47F440A43224382606B
:1039B00010BD826822F070020A4342F00701816064
:1039C0007047000030B5026A22F001020262026A0A
:1039D0004368846924F073050C682C4322F00205C7
:1039E0008A682A430A4DA8420BD122F00805CA680A
:1039F00023F440732A434D6922F004021D438B696E
:103A00002B434360846149684163026230BD00001A
:103A10000000014030B5026A22F010020262026A20
:103A2000436884690D6824F4E64444EA05248D68FB
:103A300022F0200242EA05120B4DA8420ED1CD68B9
:103A400022F0800242EA05124D6923F4406343EA02
:103A500085038D6922F0400243EA85034360846157
:103A600049688163026230BD0000014030B5026ADE
:103A700022F480720262036A4268C46923F400730C
:103A800024F073050C682C438D6843EA05230C4D24
:103A9000A8420ED1CD6823F4006343EA05234D69A3
:103AA00022F4405242EA05128D6923F4806342EA0F
:103AB00005124260C4614968C163036230BD000001
:103AC0000000014030B5026A22F480520262046AAA
:103AD0004268C3690D6823F4E64343EA05238D6811
:103AE00024F4005444EA0534064DA84204D14D693B
:103AF00022F4804242EA85124260C361496801644F
:103B0000046230BD0000014070B5036800249A686B
:103B100022F070054A682A4322F007050A682A4302
:103B20009A604A6812F00F0F31D11211082A2ED272
:103B3000DFE802F02E2E2E2E0B2127040B69D1E98F
:103B400002210068FFF72BFF22E00A68052A10D047
:103B50000268136A156A25F0010515620268956905
:103B6000096925F0F00545EA0111916100680362D9
:103B70000EE0012070BD0A698968006800F00AF84B
:103B800006E00A698968006800F04CF800E001244A
:103B9000204670BD10B5036A046A24F00104046273
:103BA000846924F0F00444EA021423F00A020A4370
:103BB0008461026210BD000070B5046A24F0010443
:103BC00004628469056A124EB0420ED0B0F1804F93
:103BD0000BD0104EB04208D00F4EB04205D00F4E61
:103BE000B04202D00E4EB04203D124F0030414437D
:103BF00001E044F001041A0724F0F00444EA1262E0
:103C000025F00A0301F00A0119438261016270BDC7
:103C1000000001400004004000080040000C00408B
:103C20000040014010B5036A23F01003036283696A
:103C3000046A23F4704343EA023224F0A00343EA07
:103C400001118261016210BD30B5046A24F01004D4
:103C500004628469056A24F4407444EA022222F46E
:103C600070444FF6FF7202EA03322243A02425F08B
:103C7000A00304EA011119438261016230BD000012
:103C800010B5084C012204212046FDF7C2FB01209B
:103C9000FDF7A2FA20460022BDE810400421FDF7FE
:103CA000B8BB00000004024010B5806B0021C18544
:103CB000C184FEF723FD10BD70B5846B2068406998
:103CC00094F83D10C0F3C0100025212904D118B18B
:103CD000E584204600F08AF82068406994F83E1098
:103CE000C0F38010222904D118B1E585204600F0E8
:103CF00056F8206C40F0100020642046FEF7FEFCD1
:103D000070BD10B50146806B09680968C9052FD4DC
:103D10000021C18501680C3151E8002F22F4807226
:103D200041E80023002BF5D10168143151E8002F40
:103D300022F0010241E80023002BF5D10168143183
:103D400051E8002F22F0400241E80023002BF5D17A
:103D5000202180F83E10016B012909D101680C3146
:103D600051E8002F22F0100241E80023002BF5D18A
:103D7000016B012902D0FEF7B3FE10BD818DFEF765
:103D800023FC10BD10B5806B016B012902D0FEF73A
:103D9000C7FE10BD818D4908FEF716FC10BD0168F5
:103DA0000C3151E8002F22F4907241E80023002BDF
:103DB000F5D10168143151E8002F22F0010241E8E9
:103DC0000023002BF5D1016B012909D101680C31C9
:103DD00051E8002F22F0100241E80023002BF5D11A
:103DE000202180F83E1000210163704701680C31EA
:103DF00051E8002F22F0C00241E80023002BF5D14A
:103E0000202180F83D10704708B590F83E10222917
:103E100001D0022008BD82684FF480539A4201D13C
:103E2000016921B1816A9A421BD04AB10AE0026855
:103E3000816A5268C2F308020A80816A891C08E01C
:103E4000026972B10268526802F07F020A70816AE8
:103E5000491C8162C18D491E0904090CC18503D02A
:103E600019E002685268F1E70168CA6822F020028E
:103E7000CA600168CA6822F48072CA6001684A692F
:103E800022F001024A61202180F83E10016B0129D5
:103E900003D0FEF725FE002008BD00210163016864
:103EA0000C3151E8002F22F0100241E80023002BD2
:103EB000F5D101680A68D20602D50A6849680091FE
:103EC000818DFEF781FBE6E770B504460068016965
:103ED000E26821F44051114301612169A068E2695F
:103EE00008436169114308432168CA6849F20C63B9
:103EF0009A430243CA6020684169A26921F4407173
:103F00001143416131492068884202D030498842DA
:103F100002D1FDF7CDFB01E0FDF7BAFBE26900231A
:103F2000192164253226B2F5004F626828D0A0FB23
:103F30000101930F9200FCF74BF90146B0FBF5F03D
:103F40006FF01802504301EB800006EB0010B0FB4D
:103F5000F5F000F0F002B1FBF5F002EB0012B1FB5E
:103F6000F5F06FF01803584301EB800006EB0010EA
:103F7000B0FBF5F000F00F0021681044886070BDC0
:103F8000A0FB010192185B41FCF722F90146B0FB4E
:103F9000F5F00201B1FBF5F06FF01803584301EBA7
:103FA000800006EBC000B0FBF5F000F0F80002EB7B
:103FB0004002B1FBF5F0584301EB800006EBC00076
:103FC000B0FBF5F000F00700D6E70000001001405C
:103FD0000014014038B581628285002513460446ED
:103FE0000564222084F83E00A26B1C48D063A26BBB
:103FF0001B481064A26B1B48D064A06B0A46056581
:104000002168A06B091DFDF7AFF8206801684068C2
:10401000009084F83C50206948B120680C3050E88A
:10402000001F41F4807140E80012002AF5D1206899
:10403000143050E8001F41F0010140E80012002A4E
:10404000F5D12068143050E8001F41F0400140E8ED
:104050000012002AF5D1002038BD0000033D000801
:10406000853D0008B93C00082DE9F0419846174607
:104070000E460446069D27E0681C25D02DB1FDF7AD
:10408000CDF9A0EB0800A8421ED920680C3050E8FA
:10409000001F21F4D07140E80012002AF5D12068F9
:1040A000143050E8001F21F0010140E80012002AFE
:1040B000F5D1202084F83D0084F83E00002084F8EB
:1040C0003C000320BDE8F0812068006836EA00006B
:1040D00004D00020B842CFD00020F3E70120F9E758
:1040E0000148FEF70DBB0000100B0020FEE70000AA
:1040F0000FB4054B10B503A9044A029800F0FEF86E
:1041000010BC5DF814FB00000D4A000828090020CF
:104110000FB4084B10B504A902AA039800F0EEF8FA
:10412000044602A9002000F06CFC204610BC5DF89B
:1041300014FB0000034A00080907090E002804DBED
:1041400000F1E02080F80014704700F00F0000F14B
:10415000E02080F8141D704702E008C8121F08C153
:10416000002AFAD170477047002001E001C1121FF8
:10417000002AFBD1704700002DE9FF5F82B00021CB
:10418000DDE90430020DDDF840B0034318D044F6F9
:104190001050A2F2FF3242431514119801281FD08B
:1041A000A5EB0B00401C5FEA000A4FF000064E4FE3
:1041B000DFF83891B046504615D5CAF1000413E037
:1041C000119801244AA3012801D16FEA0B0102983A
:1041D000119AC0E90031C0E9024206B0BDE8F09F83
:1041E000CBF10000DFE704460021404A491842EBCA
:1041F0000450CDE9001012E0E00707D032463B46FC
:1042000040464946FCF712FA8046894632463B460C
:1042100010461946FCF70AFA06460F466410002CB1
:10422000EAD1DDE90401DDE90023BAF1000F06DA85
:10423000FCF7FCF942464B46FCF7F8F905E0FCF7C1
:104240000AF842464B46FCF706F804460E460022A2
:10425000284BFCF775FA03D84FF0FF30014607E012
:104260000022254B20463146FCF739F9FCF750FA7D
:10427000102409E0002C0ADB0A220023FBF7A8FF28
:10428000039B30321A55641E50EA0102F2D1641CBD
:10429000039AC4F111031444119A012A03D0012294
:1042A00008430DD10AE0084304D000204FF0110B61
:1042B000119072E7A3EB0B056D1E0DE05B4504DD6D
:1042C0004FF0000205F1010504E003DA4FF00002AF
:1042D000A5F10105002AECD002981199C0E902313C
:1042E000C0E9004579E70000000014400000F03FFD
:1042F000300000000000F0430000E03F2DE9FF4FD8
:1043000095B09A46884606460025EEE1252877D1E5
:1043100000242746F94A0121039400E0044316F8DB
:10432000013F203B01FA03F01042F7D130782A28F0
:1043300011D06FF02F033078A0F13002092A16D87F
:10434000039A44F0020402EB820203EB420210449F
:10435000761C0390EFE758F8042B0392002A03DA47
:10436000504244F40054039044F00204761C307828
:104370002E2816D116F8010F44F004042A280DD077
:104380006FF02F023078A0F13003092B09D807EB2A
:10439000870302EB4303C718761CF3E758F8047B46
:1043A000761C30786C280FD006DC4C2817D0682893
:1043B0000DD06A2814D104E0742810D07A280FD1C7
:1043C0000DE044F400140AE044F4801401E044F4E5
:1043D00040147278824202D104F58014761C761C57
:1043E000307866280BD013DC582877D009DC0028F9
:1043F00075D04528F6D04628F4D047281AD193E145
:1044000018E0632835D0642879D0652812D18BE173
:10441000702873D008DC6728F1D069286FD06E2827
:104420000DD06F2806D1ACE073282CD0752874D03D
:10443000782853D05246179990476D1C54E1C4F325
:104440000250022809D003280DD0D8F80010042803
:104450000DD00D6008F1040846E1D8F80010EA1705
:10446000C1E90052F6E7D8F800100D80F2E70D70B0
:10447000F0E718F8041B8DF8001000208DF80100FB
:10448000EB46012003E058F804BB4FF0FF30610712
:104490004FF0000102D40DE009F101018946B94253
:1044A0000FDA8145F8DB1BF809100029F4D108E088
:1044B00009F1010189468142FADB1BF80910002944
:1044C000F6D103985346A0EB090721463846179AC0
:1044D00000F080FA284400EB090507E044E008E119
:1044E0000DE01BF8010B524617999047B9F10109ED
:1044F000F7D2534621463846179AF2E039E00A21AE
:10450000C4F302524FF0000B0091022A06D058F873
:10451000040BC117032A09D00AE023E008F10700C1
:1045200020F00702F2E80201904605E000B2C11750
:10453000042A01D140B2C117002906DA0A46002137
:10454000404261EB02012D2202E0220504D52B221C
:104550008DF80420012203E0E20701D02022F7E7D2
:10456000914657E00A2100E010214FF0000B009126
:104570000BE010214FF0000B44F0040408270091D9
:1045800003E008204FF0000B0090C4F30252022A0F
:1045900005D058F8040B0021032A08D008E008F1E0
:1045A000070020F00702F2E80201904603E080B223
:1045B000042A00D1C0B24FF0000922072AD5327870
:1045C000702A07D0DDF800C08CF0100C5CEA0B0CF0
:1045D00005D00EE040228DF80420012208E050EAC8
:1045E000010306D030238DF804308DF80520022217
:1045F0009146009B83F0080353EA0B030AD150EA6B
:10460000010201D1620705D530228DF804204FF058
:1046100001097F1E3278582A04D039A20C920CAAC4
:1046200002920BE03BA2F9E75B46009AFBF7D0FD54
:104630000C9B9B5C029A521E0292137050EA01027C
:10464000F2D1029804A9081A00F1200B600702D5E4
:1046500024F4803400E001275F4502DDA7EB0B0066
:1046600000E0002000EB0B01009003984944401A41
:104670000390E00306D453462146179A039800F0AE
:10468000A9F90544002706E001A85246C05D179924
:1046900090476D1C7F1C4F45F6DBE0030CD553465D
:1046A0002146179A039800F095F9054404E030205C
:1046B0005246179990476D1C0099481E009000299A
:1046C000F5DC08E00298029952460078491C0291F4
:1046D000179990476D1CBBF10001ABF1010BF1DCA8
:1046E0005BE100F065F90544761C307800287FF422
:1046F0000DAE19B02846BDE8F08F00000928010072
:104700003031323334353637383961626364656647
:104710000000000030313233343536373839414209
:104720004344454600000000600700D4062708F116
:10473000070020F00700F0E80223804603F0004C59
:104740005FEA0C0001D097A009E0200501D596A0F2
:1047500005E0E00701D095A001E0AFF24C00139016
:10476000307823F0004365280CD006DC452809D0BA
:1047700046281DD047287FD13BE0662818D06728FF
:104780007AD136E00021112F01DB112000E0781CE6
:10479000CDE9000104A90CA8FFF7EEFCDDE90D014D
:1047A0000C9A4FF0000B07F10109109200914EE0B6
:1047B0004FF000400097CDE9011004A90CA8FFF7C5
:1047C000DBFCDDE90D020C9B0F994FF0000B9146CD
:1047D0001093009211B9791C00EB0109B7EB0900A5
:1047E00003D4C0F1FF3B07F10109A9EB07000190D9
:1047F00042E0012F00DA01270021112F01DD1120F5
:1048000000E03846CDE9000104A90CA8FFF7B4FC8C
:10481000DDE90D010C9A00914FF0000BB9461092A2
:1048200021070FD4009A4A4503DA914601E0A9F125
:104830000109B9F1010F05DD109AA9F10101515CDF
:104840003029F4D0B84202DA10F1040F03DA012162
:10485000CDE9011010E0002803DC8344A9EB00013E
:1048600002E0411C494500DD8946A0EB0B00401CDD
:1048700001904FF000400290200705D40198484570
:1048800002DB4FF0FF30019000208DF84B000298C2
:104890000DF14B07B0F1004F25D002200C902B20DA
:1048A0000D90029800280CDA404202902D200D90C5
:1048B00007E00A210298FBF780FD3031029007F8EB
:1048C000011D0C99481E0C900029F2DC029800286A
:1048D000EFD1791E0D980870307800F0200040F07C
:1048E000450007F8020D11A8C01BC01D02901398C7
:1048F000007800B1012000EB0901019801EBE071A3
:10490000029801440398401A401E0390E00306D425
:1049100053462146179A039800F05CF80544139813
:10492000007818B15246179990476D1CE00323D5C3
:1049300053462146179A039800F04CF805441BE0B3
:10494000BBF1000F07DB0098584504DD109817995C
:1049500010F80B0001E0179930205246904701985B
:104960000BF1010B401E05F10105019004D12E2031
:104970005246179990476D1CB9F10001A9F1010940
:10498000DEDC05E017F8010B5246179990476D1CC5
:104990000299481E02900029F4DC53462146179ADA
:1049A00003989EE62D0000002B0000002000000070
:1049B0002DE9F041044600251E461746880404D41C
:1049C00005E039462020B0476D1C641EF9D5284605
:1049D000BDE8F0812DE9F041044600251E469046D1
:1049E000C80301D5302700E02027880404D505E05E
:1049F00041463846B0476D1C641EF9D52846BDE8CF
:104A0000F0810A68531C0B601070704713B54FF6A5
:104A1000FF73012269460248FEF784F800981CBD26
:104A2000100B00202DED068B86B0FCF705FDFEF780
:104A3000FFFEFEF799FAFEF779FAFEF71BFCFEF788
:104A4000B5FBFEF72DFAFEF7E5FCFEF7BDFCFEF721
:104A50006DFCFEF747FBFEF719FD0021FE48FDF750
:104A6000F7FC0821FD48FDF7F3FC0021FC48FDF7A9
:104A7000EFFC0821F848FDF7EBFC0C21F648FDF7A8
:104A8000E7FCF84832210160F348FDF72BF90021DB
:104A9000F548FDF7C1FA0421F348FDF7BDFA3222CB
:104AA000F249F348FDF764FD9FEDF2ABDFEDF38AC9
:104AB000F34DB6EE008A40F2E73B4FF0000A0024C7
:104AC00002AEF048FCF736F93221EE48FCF7DCF88C
:104AD000EC48FCF77BF846F82400641C022CF0DB61
:104AE000E848FCF78DF90398292190FBF1F6E6A23E
:104AF00004210020FEF7D0FD633E320000D5724253
:104B000004210020FEF708FEE3A208210020FEF7A2
:104B1000C3FDE34C082100202278FEF7FDFD002EA6
:104B200000DA7642F0B24FF40062DE49FEF74CFE46
:104B30004FF4FA763046FCF74FFBFEF76DF8092884
:104B400013D2DFE800F00513356AF8EFEEEDEC0064
:104B50004FF40071D448FCF754FCD44C02E001201F
:104B6000FCF73AFB20680028F9D062E3FEF770FCFE
:104B7000BC480660BB481038C0F800B0606AFBF75C
:104B800009FC06460F46206AFBF704FC41EC100BBB
:104B9000C7A053EC102BCDE90067FFF7A9FAC34C6F
:104BA00002E00120FCF718FB20680028F9D040E360
:104BB000FEF74EFCAB491039C1F800B0E06848B1CF
:104BC0000120E060A7480168B1F5617F08D9C4F809
:104BD0000CA008E0A348642101600120E06002E02D
:104BE00001680A310160606AFBF7D4FB06460F4694
:104BF000206AFBF7CFFB41EC100BADA053EC102B60
:104C0000CDE90067FFF774FAA84C02E00120FCF739
:104C1000E3FA20680028F9D00BE3FEF719FCA0693D
:104C200080B19048006800EE100A8E481038F8EE07
:104C3000400A006800EE100AB8EE400A80EE801AC2
:104C400084ED051A2069FBF775FB41EC100B51EC64
:104C50001A0B53EC102BFBF7FEFAFBF77CFB814F92
:104C6000103F401E38603868D4ED050A00EE100A87
:104C7000DFF8F081B8EE400A20EE200ABDEEC00A4F
:104C800010EE101AC8F80010D8F800108EA0FFF728
:104C90002FFA39688EA0FFF72BFAD8F8000000EE43
:104CA000100A3868F8EE400A00EE100A02213C2093
:104CB000B8EE401A80EE810AFEF708FD04213C2080
:104CC0002269FEF729FD206942F21C51884200DD6D
:104CD0002661216980A001F5FA712161FFF708FAC8
:104CE000606AFBF757FB06460F46206AFBF752FB4C
:104CF00041EC100B6EA053EC102BCDE90067FFF7D1
:104D0000F7F96069FBF746FB41EC100B76A053EC1A
:104D1000102BFFF7EDF9C4F818A0644C07E00BE284
:104D200093E16CE01EE006E00120FCF755FA2068F4
:104D30000028F9D07DE2FEF78BFB002194ED080AF4
:104D40000846FEF7C3FC94ED090A00213C20FEF75B
:104D5000BDFC564C02E00120FCF73EFA206800281A
:104D6000F9D066E2FEF774FB606AFBF713FB0646B8
:104D70000F46206AFBF70EFB41EC100B4CA053ECE6
:104D8000102BCDE90067FFF7B3F994ED090AF0EEB7
:104D9000080A20EE200A10EE100AFBF7FBFA41EC9D
:104DA000100B51EC1A0B53EC102BFBF754FAFBF7DA
:104DB000D2FA2C491039401E08600868294900EED3
:104DC000100AF8EE400A94ED080A60EE800AFDEE43
:104DD000E00A10EE900A086002213C20FEF776FC03
:104DE00094ED090A04213C20FEF770FC2F4C02E0F0
:104DF0000120FCF7F1F920680028F9D019E2FEF74C
:104E000027FB2A4E1CE100BFFEF73AFF0A20FCF701
:104E1000E3F9FEF71DFB00211D220846FEF7E2FB29
:104E20001E2200211020FEF7DDFB1F220021202082
:104E3000FEF7D8FB94ED0A0A0021302020EE280A64
:104E400020EE080AFEF742FC2DA200215020FEF7BA
:104E500023FC94ED0A0A55E0380A0020800A00205D
:104E6000A80900203C0C0040F00900202C0900207B
:104E7000100B00200000000080842E4100D0044769
:104E80003C08004060090020202020202020202015
:104E900020202020000000007374617475733A00B4
:104EA000C008002000000240000402400809002061
:104EB000447574793A252E32662C667265713A25EE
:104EC0002E32660D0A0000006363723A25640A0000
:104ED0006172723A25640A007461736B336665729D
:104EE000713A25640A0000007461736B3364757451
:104EF000795F6368616E67653A25660A0A0000009B
:104F0000636D000020EE280ADC4920EE080A10EE4E
:104F1000100A88421BDDC5F800A0D949C1F834B099
:104F2000D849C1F800B0DFF860830F140022394679
:104F30004046FCF76EFAC820FCF74EF901223946CC
:104F40004046FCF766FA4FF44870FCF745F994EDDB
:104F50000A0ACE4920EE280A20EE080A10EE100AAE
:104F60000844CB4988422CD2C5F800B0C44AC2F8E4
:104F700034A0C449C1F800B0DFF80C830F1400223C
:104F800039464046FCF745FAC820FCF725F90122CE
:104F900039464046FCF73DFA4FF496794846FCF70F
:104FA0001BF9002239464046FCF733FAC820FCF7CB
:104FB00013F9012239464046FCF72BFA4846FCF724
:104FC0000BF994ED0A0AB14920EE280AC94320EEF4
:104FD000080A10EE100A88422ADAC5F800B0A8497B
:104FE000C1F834B0A749C1F800A0DFF89C820F14C3
:104FF000002239464046FCF70CFA6420FCF7ECF836
:10500000012239464046FCF704FA9620FCF7E4F802
:10501000002239464046FCF7FCF96420FCF7DCF836
:10502000012239464046FCF7F4F99620FCF7D4F803
:10503000C5F800B09249C1F834B09249C1F800B047
:10504000306800283FF4E0AEF3E0FEF701FA0022FA
:1050500011461046FEF7C6FA012200211020FEF785
:10506000C1FA022200212020FEF7BCFA032200210F
:105070003020FEF7B7FA042200214020FEF7B2FAF2
:10508000052200215020FEF7ADFA06220021602003
:10509000FEF7A8FA072200217020FEF7A3FA0822E3
:1050A00002210020FEF79EFA092202211020FEF7BD
:1050B00099FAA06808B9C4F804A00120754FA0604F
:1050C00036E000BF66684EF6602096FBF0F0FBF716
:1050D00031F941EC190B4FF47A7096FBF0F23C2059
:1050E00092FBF0F100FB112084ED0E9BFBF722F9FF
:1050F000C4E9100151EC190BFBF72DF9024606210A
:105100000020FEF709FB1B2206211020FEF76AFA99
:1051100094ED100B51EC100BFBF71DF90246062124
:105120002020FEF7F9FA1C2206213020FEF75AFA59
:1051300038680028C6D07CE0FEF78AF9514E3EE080
:105140005F46C5F800B0DFF83881C8F834B054467F
:10515000C6F800A04FF47A794846FCF73DF837606E
:105160002C604846FCF738F82F60C8F834404846B1
:10517000FCF732F82C603460434F4FF48044002237
:1051800021463846FCF745F9FA20FCF725F80122BC
:1051900021463846FCF73DF9FA20FCF71DF80022BD
:1051A00021463846FCF735F9FA20FCF715F80122BC
:1051B00021463846FCF72DF9FA20FCF70DF8364861
:1051C00000680028BCD04FF400512F48FCF719F9B3
:1051D0005C46A846C5F800B02948C0F834B0C6F807
:1051E00000B000274FEA0509C9F800400620FBF788
:1051F000F3FF40F2E63400BFC8F800400620FBF79A
:10520000EBFF641E002CF7DC0026C146C8F80060E6
:105210000620FBF7E1FF01264FEA0B04C9F8006006
:105220000620FBF7D9FF761CA642F7DB7F1C032F75
:10523000DADBFEF70DF9002120220846FEF7D2F94D
:10524000212200211020FEF7CDF92222002120206A
:10525000FEF7C8F91F2200213020FEF7C3F90D49DF
:105260000948C1F800A00D49C1F800A00A49C1F8D9
:1052700000A04FF40051FCF7C4F820E40000C8413E
:10528000000001404008004000080240FFFF8FBEC0
:10529000FFFF570008090020140900200C09002016
:1052A00000000000000000000000000000000000FE
:1052B000000000F800000000000000333000000093
:1052C00000100C06100C060000000000000000009A
:1052D00040C07840C0784000043F04043F0404000C
:1052E000007088FC08300000001820FF211E00001C
:1052F000F008F000E018000000211C031E211E0031
:1053000000F00888700000001E21232419272110B6
:1053100010160E0000000000000000000000000059
:10532000000000E018040200000000071820400000
:1053300000020418E00000000040201807000000F0
:10534000404080F0804040000202010F0102020054
:10535000000000F0000000000101011F0101010038
:10536000000000000000000080B07000000000009D
:105370000000000000000000000101010101010126
:1053800000000000000000000030300000000000BD
:105390000000000080601804006018060100000092
:1053A00000E010080810E000000F102020100F008F
:1053B000001010F8000000000020203F2020000016
:1053C000007008080888700000302824222130006E
:1053D00000300888884830000018202020110E0076
:1053E0000000C02010F8000000070424243F24001F
:1053F00000F80888880808000019212020110E00F4
:1054000000E0108888180000000F112020110E0005
:1054100000380808C83808000000003F00000000FD
:105420000070880808887000001C222121221C00BE
:1054300000E010080810E0000000312222110F00E7
:10544000000000C0C000000000000030300000007C
:1054500000000080000000000000806000000000EC
:105460000000804020100800000102040810200005
:105470004040404040404000040404040404040050
:1054800000081020408000000020100804020100E5
:10549000007048080808F0000000003036010000E5
:1054A000C030C828E810E0000718272423140B0098
:1054B0000000C038E0000000203C23020227382012
:1054C00008F8888888700000203F202020110E00F6
:1054D000C0300808080838000718202020100800ED
:1054E00008F808080810E000203F202020100F00D6
:1054F00008F88888E8081000203F202023201800A2
:1055000008F88888E8081000203F20000300000009
:10551000C03008080838000007182020221E0200AA
:1055200008F808000008F808203F210101213F2069
:10553000000808F8080800000020203F2020000094
:1055400000000808F8080800C08080807F00000084
:1055500008F888C028180800203F200126382000BD
:1055600008F8080000000000203F20202020300024
:1055700008F8F800F8F80800203F003F003F20003E
:1055800008F830C00008F808203F200007183F0046
:10559000E01008080810E0000F10202020100F0075
:1055A00008F808080808F000203F21010101000068
:1055B000E01008080810E0000F18242438504F00AD
:1055C00008F8888888887000203F2000030C30206D
:1055D00000708808080838000038202121221C00AB
:1055E000180808F8080818000000203F20000000F4
:1055F00008F808000008F808001F202020201F00DD
:105600000878880000C83808000007380E0100003C
:10561000F80800F80008F800033C0700073C030006
:10562000081868808068180820302C03032C30206C
:105630000838C800C83808000000203F20000000DB
:1056400010080808C8380800203826212020180033
:10565000000000FE020202000000007F4040400007
:10566000000C30C000000000000000010638C0003F
:1056700000020202FE000000004040407F000000E7
:10568000000004020202040000000000000000000C
:10569000000000000000000080808080808080800A
:1056A00000020204000000000000000000000000F2
:1056B00000008080808000000019242222223F20E8
:1056C00008F8008080000000003F112020110E002B
:1056D0000000008080800000000E112020201100BA
:1056E000000000808088F800000E112020103F206C
:1056F0000000808080800000001F222222221300F0
:10570000008080F0888888180020203F202000003A
:105710000000808080808000006B949494936000EF
:1057200008F8008080800000203F210000203F20FA
:1057300000809898000000000020203F20200000FA
:10574000000000809898000000C08080807F0000EA
:1057500008F8000080808000203F24022D302000C7
:10576000000808F8000000000020203F2020000072
:105770008080808080808000203F20003F20003F8C
:105780008080008080800000203F210000203F209A
:105790000000808080800000001F202020201F004B
:1057A000808000808000000080FFA12020110E007A
:1057B0000000008080808000000E112020A0FF806B
:1057C000808080008080800020203F212000010018
:1057D000000080808080800000332424242419006D
:1057E000008080E0808000000000001F202000007A
:1057F0008080000000808000001F202020103F20BB
:10580000808080000080808000010E30080601004A
:1058100080800080008080800F300C030C300F00EF
:1058200000808000808080000020312E0E3120001A
:10583000808080000080808080818E70180601004A
:1058400000808080808080000021302C2221300068
:1058500000000000807C020200000000003F404089
:1058600000000000FF00000000000000FF0000003A
:105870000002027C800000000040403F0000000069
:105880000006010102020404000000000000000004
:1058900000061016000610160000000000000000B0
:1058A00001020304060708090000000001020304C6
:1058B000D0580008000000202C090000B80700089C
:1058C000C45C00082C090020EC06000068410008B8
:1058D000F01104E4242464A4243F24A4642424E4D4
:1058E0000400011008FF00080909097F04000410E2
:1058F00048807F1F2304044220042526243E0211F1
:105900000440000E1040201B0242827E0202020B65
:10591000106040000F1100F80808FF0808F800FEAA
:105920000222DA0620000E117F21213F21217F0073
:10593000FF0810080720100400F8880122FF050264
:1059400012F81F1004001F0801227F20F0049F801E
:10595000F09F42200152FF08F19F0010108080400C
:1059600020100C0300030C1020408080DF10073053
:105970001196909091040406129814135030203020
:1059800008040444847E06050A014FC01009888675
:10599000A2AAAAFEAAAB04F005AAA28A86FE00105B
:1059A0001108080482BF42221E2242BF02040808D6
:1059B00020140589EA1888C716FCCA0610FCE00402
:1059C0000F11020100FF0186402018074080403F70
:1059D000DF040E114042CC00504EC8487FC84848F2
:1059E00040C0000E1040201F20504C4340404F50FC
:1059F000505C2134061060020CC00415030B11A882
:105A00001860040D107C0380601F80432C10284612
:105A100081803005808282FE0308061080201008F5
:105A2000866128058040300FC50808100080844238
:105A300021100C1F080E10101092543010FF10305F
:105A4000549210109F0810108485454424140C06AD
:105A50000C14244445848440300B22A27E2222FE72
:105A60002222007C67E9BF2009444249484848494E
:105A70007E0507104A4100299D280508F8898EA057
:105A8000061108A011C1157C156805137E25A11FFC
:105A900002C25C0315041101061202A053407F04E8
:105AA000210101103F000D12E222223E0008884829
:105AB000390E08C8800C0E114382423E0021712924
:105AC00025232128705F03830484010D11FF03C285
:105AD00020010110201C0510E824273C040C0611AD
